{
  "contractName": "Voting",
  "abi": [
    {
      "constant": true,
      "inputs": [
        {
          "name": "",
          "type": "bytes32"
        },
        {
          "name": "",
          "type": "uint256"
        }
      ],
      "name": "repoContribution",
      "outputs": [
        {
          "name": "cAddress",
          "type": "address"
        },
        {
          "name": "rating",
          "type": "uint256"
        }
      ],
      "payable": false,
      "stateMutability": "view",
      "type": "function"
    },
    {
      "inputs": [],
      "payable": true,
      "stateMutability": "payable",
      "type": "constructor"
    },
    {
      "payable": true,
      "stateMutability": "payable",
      "type": "fallback"
    },
    {
      "constant": false,
      "inputs": [
        {
          "name": "repoId",
          "type": "bytes32"
        },
        {
          "name": "userAddress",
          "type": "address"
        },
        {
          "name": "rating",
          "type": "uint256"
        }
      ],
      "name": "updateRating",
      "outputs": [],
      "payable": false,
      "stateMutability": "nonpayable",
      "type": "function"
    },
    {
      "constant": false,
      "inputs": [
        {
          "name": "repoId",
          "type": "bytes32"
        },
        {
          "name": "userAddress",
          "type": "address"
        }
      ],
      "name": "createRepo",
      "outputs": [],
      "payable": false,
      "stateMutability": "nonpayable",
      "type": "function"
    },
    {
      "constant": true,
      "inputs": [
        {
          "name": "repoId",
          "type": "bytes32"
        },
        {
          "name": "user_address",
          "type": "address"
        }
      ],
      "name": "listRepos",
      "outputs": [
        {
          "name": "",
          "type": "address"
        }
      ],
      "payable": false,
      "stateMutability": "view",
      "type": "function"
    },
    {
      "constant": false,
      "inputs": [
        {
          "name": "repoId",
          "type": "bytes32"
        }
      ],
      "name": "crowdFund",
      "outputs": [
        {
          "name": "",
          "type": "uint256"
        }
      ],
      "payable": true,
      "stateMutability": "payable",
      "type": "function"
    },
    {
      "constant": false,
      "inputs": [
        {
          "name": "value",
          "type": "uint256"
        },
        {
          "name": "repoId",
          "type": "bytes32"
        }
      ],
      "name": "transfer_contribution",
      "outputs": [],
      "payable": true,
      "stateMutability": "payable",
      "type": "function"
    }
  ],
  "bytecode": "0x608060405260206040519081016040528060008152506001908051906020019061002a929190610030565b506100d5565b828054600181600116156101000203166002900490600052602060002090601f016020900481019282601f1061007157805160ff191683800117855561009f565b8280016001018555821561009f579182015b8281111561009e578251825591602001919060010190610083565b5b5090506100ac91906100b0565b5090565b6100d291905b808211156100ce5760008160009055506001016100b6565b5090565b90565b610a9e806100e46000396000f300608060405260043610610078576000357c0100000000000000000000000000000000000000000000000000000000900463ffffffff1680630399da991461009057806339f0149614610112578063e0beb98a14610140578063ecca19c914610178578063ed9f898314610209578063fb1dde7814610264575b60006211238d600102905061008d34826102b5565b50005b34801561009c57600080fd5b506100c9600480360381019080803560001916906020019092919080359060200190929190505050610451565b604051808373ffffffffffffffffffffffffffffffffffffffff1673ffffffffffffffffffffffffffffffffffffffff1681526020018281526020019250505060405180910390f35b61013e6004803603810190808035906020019092919080356000191690602001909291905050506102b5565b005b61016260048036038101908080356000191690602001909291905050506104b1565b6040518082815260200191505060405180910390f35b34801561018457600080fd5b506101c76004803603810190808035600019169060200190929190803573ffffffffffffffffffffffffffffffffffffffff1690602001909291905050506104e2565b604051808273ffffffffffffffffffffffffffffffffffffffff1673ffffffffffffffffffffffffffffffffffffffff16815260200191505060405180910390f35b34801561021557600080fd5b506102626004803603810190808035600019169060200190929190803573ffffffffffffffffffffffffffffffffffffffff16906020019092919080359060200190929190505050610610565b005b34801561027057600080fd5b506102b36004803603810190808035600019169060200190929190803573ffffffffffffffffffffffffffffffffffffffff169060200190929190505050610842565b005b60008060009150600090505b6000808460001916600019168152602001908152602001600020805490508110156103305760008084600019166000191681526020019081526020016000208181548110151561030d57fe5b9060005260206000209060020201600101548201915080806001019150506102c1565b600090505b60008084600019166000191681526020019081526020016000208054905081101561044b5760008084600019166000191681526020019081526020016000208181548110151561038157fe5b906000526020600020906002020160000160009054906101000a900473ffffffffffffffffffffffffffffffffffffffff1673ffffffffffffffffffffffffffffffffffffffff166108fc836000808760001916600019168152602001908152602001600020848154811015156103f457fe5b906000526020600020906002020160010154870281151561041157fe5b049081150290604051600060405180830381858888f1935050505015801561043d573d6000803e3d6000fd5b508080600101915050610335565b50505050565b60006020528160005260406000208181548110151561046c57fe5b9060005260206000209060020201600091509150508060000160009054906101000a900473ffffffffffffffffffffffffffffffffffffffff16908060010154905082565b60006104bd34836102b5565b6000808360001916600019168152602001908152602001600020805490509050919050565b600080600090505b600080856000191660001916815260200190815260200160002080549050811015610608578273ffffffffffffffffffffffffffffffffffffffff1660008086600019166000191681526020019081526020016000208281548110151561054d57fe5b906000526020600020906002020160000160009054906101000a900473ffffffffffffffffffffffffffffffffffffffff1673ffffffffffffffffffffffffffffffffffffffff1614156105fb576000808560001916600019168152602001908152602001600020818154811015156105c257fe5b906000526020600020906002020160000160009054906101000a900473ffffffffffffffffffffffffffffffffffffffff169150610609565b80806001019150506104ea565b5b5092915050565b600061061a61092b565b60008092505b600080876000191660001916815260200190815260200160002080549050831015610720578473ffffffffffffffffffffffffffffffffffffffff1660008088600019166000191681526020019081526020016000208481548110151561068357fe5b906000526020600020906002020160000160009054906101000a900473ffffffffffffffffffffffffffffffffffffffff1673ffffffffffffffffffffffffffffffffffffffff16141561071357836000808860001916600019168152602001908152602001600020848154811015156106f957fe5b906000526020600020906002020160010181905550610720565b8280600101935050610620565b60008087600019166000191681526020019081526020016000208054905083141561083a5760408051908101604052808673ffffffffffffffffffffffffffffffffffffffff1681526020018581525091506000808760001916600019168152602001908152602001600020905080829080600181540180825580915050906001820390600052602060002090600202016000909192909190915060008201518160000160006101000a81548173ffffffffffffffffffffffffffffffffffffffff021916908373ffffffffffffffffffffffffffffffffffffffff1602179055506020820151816001015550505080600080886000191660001916815260200190815260200160002090805461083892919061095b565b505b505050505050565b61084a61092b565b600060408051908101604052808473ffffffffffffffffffffffffffffffffffffffff1681526020016064815250915080829080600181540180825580915050906001820390600052602060002090600202016000909192909190915060008201518160000160006101000a81548173ffffffffffffffffffffffffffffffffffffffff021916908373ffffffffffffffffffffffffffffffffffffffff1602179055506020820151816001015550505080600080866000191660001916815260200190815260200160002090805461092492919061095b565b5050505050565b6040805190810160405280600073ffffffffffffffffffffffffffffffffffffffff168152602001600081525090565b828054828255906000526020600020906002028101928215610a135760005260206000209160020282015b82811115610a125782826000820160009054906101000a900473ffffffffffffffffffffffffffffffffffffffff168160000160006101000a81548173ffffffffffffffffffffffffffffffffffffffff021916908373ffffffffffffffffffffffffffffffffffffffff16021790555060018201548160010155505091600201919060020190610986565b5b509050610a209190610a24565b5090565b610a6f91905b80821115610a6b57600080820160006101000a81549073ffffffffffffffffffffffffffffffffffffffff0219169055600182016000905550600201610a2a565b5090565b905600a165627a7a72305820e3aa6ef839f2983f5c5f287bda27e992ecb94548f98b13824ede70285181c57d0029",
  "source": " pragma solidity ^0.4.18;\n // We have to specify what version of compiler this code will compile with\n\n contract Voting {\n\n     struct Contributor {\n         address cAddress;\n         uint rating;\n     }\n\n\n   mapping (bytes32 => Contributor[]) public repoContribution;\n\n     bytes data = \"\";\n\n\n\n   function Voting() payable {\n\n   }\n\n     function updateRating(bytes32 repoId, address userAddress, uint rating) {\n\n         for (uint user_i = 0 ; user_i < repoContribution[repoId].length ; user_i++) {\n\n         if (repoContribution[repoId][user_i].cAddress == userAddress)\n         {\n            repoContribution[repoId][user_i].rating = rating;\n             break;\n         }\n\n         }\n         if (user_i == repoContribution[repoId].length) {\n\n             Contributor memory cont = Contributor(userAddress, rating);\n             Contributor[] conts = repoContribution[repoId];\n             conts.push(cont);\n             repoContribution[repoId] = conts;\n         }\n\n\n     }\n\n     function createRepo(bytes32 repoId, address userAddress) {\n         Contributor memory cont = Contributor(userAddress, 100);\n         Contributor[] conts;\n         conts.push(cont);\n         repoContribution[repoId] = conts;\n\n\n }\n\n     function listRepos(bytes32 repoId, address user_address) view public returns (address) {\n         for (uint user_i = 0 ; user_i < repoContribution[repoId].length ; user_i++)\n         {\n             if (repoContribution[repoId][user_i].cAddress == user_address)\n             {\n\n                 return repoContribution[repoId][user_i].cAddress;\n//                  return data;\n             }\n\n         }\n\n//         return repoContribution[repoId].length;\n\n\n\n     }\n\n     function crowdFund(bytes32 repoId) payable returns (uint){\n\n         transfer_contribution(msg.value, repoId);\n         return repoContribution[repoId].length;\n\n\n     }\n\n   function() payable {\n\n       bytes32 repoId = 1123213;\n       transfer_contribution(msg.value, repoId);\n\n\n\n   }\n\n   function transfer_contribution(uint value, bytes32 repoId) payable {\n\n//       Contributor[] contributors = repoContribution[repoId];\n\n       uint totalRatings = 0;\n\n\n       for (uint i = 0 ; i < repoContribution[repoId].length ; i++) {\n           totalRatings += repoContribution[repoId][i].rating;\n\n       }\n\n       for (i = 0 ; i < repoContribution[repoId].length ; i++) {\n\n               repoContribution[repoId][i].cAddress.transfer((value * repoContribution[repoId][i].rating) / totalRatings);\n\n       }\n\n\n   }\n\n\n }",
  "sourcePath": "/home/koshik/projects/accenture_hackathon/crowd-fund-fe/contracts/Voting.sol",
  "compiler": {
    "name": "solc",
    "version": "0.4.24+commit.e67f0147.Emscripten.clang"
  },
  "schemaVersion": "2.0.0",
  "updatedAt": "2018-08-25T23:22:23.378Z"
}